{
  "contractName": "vault_4",
  "abi": [
    {
      "inputs": [],
      "stateMutability": "payable",
      "type": "constructor"
    },
    {
      "inputs": [
        {
          "internalType": "uint256",
          "name": "_amount",
          "type": "uint256"
        }
      ],
      "name": "deposit",
      "outputs": [],
      "stateMutability": "payable",
      "type": "function"
    },
    {
      "inputs": [],
      "name": "getBalance",
      "outputs": [
        {
          "internalType": "uint256",
          "name": "",
          "type": "uint256"
        }
      ],
      "stateMutability": "view",
      "type": "function"
    },
    {
      "inputs": [
        {
          "internalType": "uint256",
          "name": "_amount",
          "type": "uint256"
        }
      ],
      "name": "withdraw",
      "outputs": [],
      "stateMutability": "payable",
      "type": "function"
    }
  ],
  "bytecode": "0x60806040526104a5806100136000396000f3fe6080604052600436106100345760003560e01c806312065fe0146100395780632e1a7d4d14610064578063b6b55f2514610080575b600080fd5b34801561004557600080fd5b5061004e61009c565b60405161005b9190610283565b60405180910390f35b61007e600480360381019061007991906102cf565b6100e2565b005b61009a600480360381019061009591906102cf565b6101df565b005b60008060003373ffffffffffffffffffffffffffffffffffffffff1673ffffffffffffffffffffffffffffffffffffffff16815260200190815260200160002054905090565b806000803373ffffffffffffffffffffffffffffffffffffffff1673ffffffffffffffffffffffffffffffffffffffff16815260200190815260200160002054101561012d57600080fd5b806000803373ffffffffffffffffffffffffffffffffffffffff1673ffffffffffffffffffffffffffffffffffffffff168152602001908152602001600020600082825461017b919061032b565b925050819055503373ffffffffffffffffffffffffffffffffffffffff166108fc670de0b6b3a7640000836101b0919061035f565b9081150290604051600060405180830381858888f193505050501580156101db573d6000803e3d6000fd5b5050565b670de0b6b3a7640000816101f3919061035f565b3410156101ff57600080fd5b670de0b6b3a76400003461021391906103e8565b6000803373ffffffffffffffffffffffffffffffffffffffff1673ffffffffffffffffffffffffffffffffffffffff16815260200190815260200160002060008282546102609190610419565b9250508190555050565b6000819050919050565b61027d8161026a565b82525050565b60006020820190506102986000830184610274565b92915050565b600080fd5b6102ac8161026a565b81146102b757600080fd5b50565b6000813590506102c9816102a3565b92915050565b6000602082840312156102e5576102e461029e565b5b60006102f3848285016102ba565b91505092915050565b7f4e487b7100000000000000000000000000000000000000000000000000000000600052601160045260246000fd5b60006103368261026a565b91506103418361026a565b925082821015610354576103536102fc565b5b828203905092915050565b600061036a8261026a565b91506103758361026a565b9250817fffffffffffffffffffffffffffffffffffffffffffffffffffffffffffffffff04831182151516156103ae576103ad6102fc565b5b828202905092915050565b7f4e487b7100000000000000000000000000000000000000000000000000000000600052601260045260246000fd5b60006103f38261026a565b91506103fe8361026a565b92508261040e5761040d6103b9565b5b828204905092915050565b60006104248261026a565b915061042f8361026a565b9250827fffffffffffffffffffffffffffffffffffffffffffffffffffffffffffffffff03821115610464576104636102fc565b5b82820190509291505056fea264697066735822122034402ac7f3f4825c997fb9edf93905b80413630b3c89507b086b60df71842bf964736f6c634300080d0033",
  "immutableReferences": {},
  "source": "// SPDX-License-Identifier: MIT\r\npragma solidity ^0.8.13;\r\n\r\ncontract vault_4 {\r\n    constructor() payable {}\r\n    mapping (address => uint) vaultBalances;\r\n\r\n    function deposit(uint _amount) public payable {\r\n        require(msg.value >= _amount * (10 ** 18));\r\n        vaultBalances[msg.sender] += msg.value / (10 ** 18);\r\n    }\r\n\r\n    function getBalance() public view returns(uint){\r\n        return vaultBalances[msg.sender];\r\n    }\r\n\r\n    function withdraw(uint _amount) public payable {\r\n        require(vaultBalances[msg.sender] >= _amount);\r\n        vaultBalances[msg.sender] -= _amount;\r\n        payable(msg.sender).transfer(_amount * 10 ** 18);\r\n    }\r\n}",
  "sourcePath": "C:\\Users\\melih\\Desktop\\Ethereum Dev\\depositTest\\contracts\\Vault_4.sol",
  "compiler": {
    "name": "solc",
    "version": "0.8.13+commit.abaa5c0e.Emscripten.clang"
  },
  "schemaVersion": "3.4.7",
  "updatedAt": "2022-05-15T09:47:46.054Z",
  "devdoc": {
    "kind": "dev",
    "methods": {},
    "version": 1
  },
  "userdoc": {
    "kind": "user",
    "methods": {},
    "version": 1
  }
}