{
  "contractName": "vault_3",
  "abi": [
    {
      "stateMutability": "payable",
      "type": "receive"
    },
    {
      "inputs": [
        {
          "internalType": "uint256",
          "name": "_amount",
          "type": "uint256"
        }
      ],
      "name": "deposit",
      "outputs": [],
      "stateMutability": "payable",
      "type": "function"
    },
    {
      "inputs": [],
      "name": "getBalance",
      "outputs": [
        {
          "internalType": "uint256",
          "name": "",
          "type": "uint256"
        }
      ],
      "stateMutability": "view",
      "type": "function"
    },
    {
      "inputs": [
        {
          "internalType": "uint256",
          "name": "_amount",
          "type": "uint256"
        }
      ],
      "name": "withdraw",
      "outputs": [],
      "stateMutability": "payable",
      "type": "function"
    }
  ],
  "bytecode": "0x608060405234801561001057600080fd5b506103bc806100206000396000f3fe6080604052600436106100385760003560e01c806312065fe0146100445780632e1a7d4d1461006f578063b6b55f251461008b5761003f565b3661003f57005b600080fd5b34801561005057600080fd5b506100596100a7565b6040516100669190610254565b60405180910390f35b610089600480360381019061008491906102a0565b6100ed565b005b6100a560048036038101906100a091906102a0565b6101d7565b005b60008060003373ffffffffffffffffffffffffffffffffffffffff1673ffffffffffffffffffffffffffffffffffffffff16815260200190815260200160002054905090565b806000803373ffffffffffffffffffffffffffffffffffffffff1673ffffffffffffffffffffffffffffffffffffffff16815260200190815260200160002054101561013857600080fd5b806000803373ffffffffffffffffffffffffffffffffffffffff1673ffffffffffffffffffffffffffffffffffffffff168152602001908152602001600020600082825461018691906102fc565b925050819055503373ffffffffffffffffffffffffffffffffffffffff166108fc829081150290604051600060405180830381858888f193505050501580156101d3573d6000803e3d6000fd5b5050565b8034146101e357600080fd5b346000803373ffffffffffffffffffffffffffffffffffffffff1673ffffffffffffffffffffffffffffffffffffffff16815260200190815260200160002060008282546102319190610330565b9250508190555050565b6000819050919050565b61024e8161023b565b82525050565b60006020820190506102696000830184610245565b92915050565b600080fd5b61027d8161023b565b811461028857600080fd5b50565b60008135905061029a81610274565b92915050565b6000602082840312156102b6576102b561026f565b5b60006102c48482850161028b565b91505092915050565b7f4e487b7100000000000000000000000000000000000000000000000000000000600052601160045260246000fd5b60006103078261023b565b91506103128361023b565b925082821015610325576103246102cd565b5b828203905092915050565b600061033b8261023b565b91506103468361023b565b9250827fffffffffffffffffffffffffffffffffffffffffffffffffffffffffffffffff0382111561037b5761037a6102cd565b5b82820190509291505056fea2646970667358221220856bfb130943bc581396c68d6546444599258cfed9b3a03f92beba22db355c3864736f6c634300080d0033",
  "immutableReferences": {},
  "source": "// SPDX-License-Identifier: MIT\r\npragma solidity ^0.8.13;\r\n\r\ncontract vault_3 {\r\n    mapping (address => uint) vaultBalances;\r\n\r\n    function deposit(uint _amount) public payable {\r\n        require(msg.value == _amount);\r\n        vaultBalances[msg.sender] += msg.value;\r\n    }\r\n\r\n    receive() external payable {}\r\n\r\n    function getBalance() public view returns(uint){\r\n        return vaultBalances[msg.sender];\r\n    }\r\n\r\n    function withdraw(uint _amount) public payable {\r\n        require(vaultBalances[msg.sender] >= _amount);\r\n        vaultBalances[msg.sender] -= _amount;\r\n        payable(msg.sender).transfer(_amount);\r\n    }\r\n}",
  "sourcePath": "C:\\Users\\melih\\Desktop\\Ethereum Dev\\depositTest\\contracts\\Vault_3.sol",
  "compiler": {
    "name": "solc",
    "version": "0.8.13+commit.abaa5c0e.Emscripten.clang"
  },
  "schemaVersion": "3.4.7",
  "updatedAt": "2022-05-15T09:47:46.048Z",
  "devdoc": {
    "kind": "dev",
    "methods": {},
    "version": 1
  },
  "userdoc": {
    "kind": "user",
    "methods": {},
    "version": 1
  }
}