{
  "contractName": "vault",
  "abi": [
    {
      "inputs": [
        {
          "internalType": "uint256",
          "name": "_amount",
          "type": "uint256"
        }
      ],
      "name": "deposit",
      "outputs": [],
      "stateMutability": "payable",
      "type": "function"
    },
    {
      "inputs": [
        {
          "internalType": "uint256",
          "name": "_amount",
          "type": "uint256"
        }
      ],
      "name": "withdraw",
      "outputs": [],
      "stateMutability": "payable",
      "type": "function"
    }
  ],
  "bytecode": "0x608060405234801561001057600080fd5b506102ff806100206000396000f3fe6080604052600436106100295760003560e01c80632e1a7d4d1461002e578063b6b55f251461004a575b600080fd5b610048600480360381019061004391906101e3565b610066565b005b610064600480360381019061005f91906101e3565b610150565b005b806000803373ffffffffffffffffffffffffffffffffffffffff1673ffffffffffffffffffffffffffffffffffffffff1681526020019081526020016000205410156100b157600080fd5b806000803373ffffffffffffffffffffffffffffffffffffffff1673ffffffffffffffffffffffffffffffffffffffff16815260200190815260200160002060008282546100ff919061023f565b925050819055503373ffffffffffffffffffffffffffffffffffffffff166108fc829081150290604051600060405180830381858888f1935050505015801561014c573d6000803e3d6000fd5b5050565b806000803373ffffffffffffffffffffffffffffffffffffffff1673ffffffffffffffffffffffffffffffffffffffff168152602001908152602001600020600082825461019e9190610273565b9250508190555050565b600080fd5b6000819050919050565b6101c0816101ad565b81146101cb57600080fd5b50565b6000813590506101dd816101b7565b92915050565b6000602082840312156101f9576101f86101a8565b5b6000610207848285016101ce565b91505092915050565b7f4e487b7100000000000000000000000000000000000000000000000000000000600052601160045260246000fd5b600061024a826101ad565b9150610255836101ad565b92508282101561026857610267610210565b5b828203905092915050565b600061027e826101ad565b9150610289836101ad565b9250827fffffffffffffffffffffffffffffffffffffffffffffffffffffffffffffffff038211156102be576102bd610210565b5b82820190509291505056fea264697066735822122057df48500c237217531ed097ae3e80c2a3602a334eeff5c3dc8cccd06801ad5564736f6c634300080d0033",
  "immutableReferences": {},
  "source": "// SPDX-License-Identifier: MIT\r\npragma solidity ^0.8.13;\r\n\r\ncontract vault {\r\n    mapping (address => uint) vaultBalances;\r\n\r\n    function deposit(uint _amount) public payable {\r\n        vaultBalances[msg.sender] += _amount;\r\n    }\r\n\r\n    function withdraw(uint _amount) public payable {\r\n        require(vaultBalances[msg.sender] >= _amount);\r\n        vaultBalances[msg.sender] -= _amount;\r\n        payable(msg.sender).transfer(_amount);\r\n    }\r\n}",
  "sourcePath": "C:\\Users\\melih\\Desktop\\Ethereum Dev\\depositTest\\contracts\\Vault_2.sol",
  "compiler": {
    "name": "solc",
    "version": "0.8.13+commit.abaa5c0e.Emscripten.clang"
  },
  "schemaVersion": "3.4.7",
  "updatedAt": "2022-05-14T18:51:05.009Z",
  "devdoc": {
    "kind": "dev",
    "methods": {},
    "version": 1
  },
  "userdoc": {
    "kind": "user",
    "methods": {},
    "version": 1
  }
}