{
  "contractName": "MultiSigWallet",
  "abi": [
    {
      "inputs": [
        {
          "internalType": "address[]",
          "name": "_owners",
          "type": "address[]"
        },
        {
          "internalType": "uint256",
          "name": "_numConfirmationsRequired",
          "type": "uint256"
        }
      ],
      "stateMutability": "nonpayable",
      "type": "constructor"
    },
    {
      "anonymous": false,
      "inputs": [
        {
          "indexed": true,
          "internalType": "address",
          "name": "owner",
          "type": "address"
        },
        {
          "indexed": true,
          "internalType": "uint256",
          "name": "txIndex",
          "type": "uint256"
        }
      ],
      "name": "ConfirmTransaction",
      "type": "event"
    },
    {
      "anonymous": false,
      "inputs": [
        {
          "indexed": true,
          "internalType": "address",
          "name": "sender",
          "type": "address"
        },
        {
          "indexed": false,
          "internalType": "uint256",
          "name": "amount",
          "type": "uint256"
        },
        {
          "indexed": false,
          "internalType": "uint256",
          "name": "balance",
          "type": "uint256"
        }
      ],
      "name": "Deposit",
      "type": "event"
    },
    {
      "anonymous": false,
      "inputs": [
        {
          "indexed": true,
          "internalType": "address",
          "name": "owner",
          "type": "address"
        },
        {
          "indexed": true,
          "internalType": "uint256",
          "name": "txIndex",
          "type": "uint256"
        }
      ],
      "name": "ExecuteTransaction",
      "type": "event"
    },
    {
      "anonymous": false,
      "inputs": [
        {
          "indexed": true,
          "internalType": "address",
          "name": "owner",
          "type": "address"
        },
        {
          "indexed": true,
          "internalType": "uint256",
          "name": "txIndex",
          "type": "uint256"
        }
      ],
      "name": "RevokeTransaction",
      "type": "event"
    },
    {
      "anonymous": false,
      "inputs": [
        {
          "indexed": true,
          "internalType": "address",
          "name": "owner",
          "type": "address"
        },
        {
          "indexed": true,
          "internalType": "uint256",
          "name": "txIndex",
          "type": "uint256"
        },
        {
          "indexed": true,
          "internalType": "address",
          "name": "to",
          "type": "address"
        },
        {
          "indexed": false,
          "internalType": "uint256",
          "name": "value",
          "type": "uint256"
        },
        {
          "indexed": false,
          "internalType": "bytes",
          "name": "data",
          "type": "bytes"
        }
      ],
      "name": "SubmitTransaction",
      "type": "event"
    },
    {
      "inputs": [
        {
          "internalType": "address",
          "name": "",
          "type": "address"
        },
        {
          "internalType": "uint256",
          "name": "",
          "type": "uint256"
        }
      ],
      "name": "confirmedTransactions",
      "outputs": [
        {
          "internalType": "bytes32",
          "name": "",
          "type": "bytes32"
        }
      ],
      "stateMutability": "view",
      "type": "function"
    },
    {
      "inputs": [],
      "name": "numConfirmationsRequired",
      "outputs": [
        {
          "internalType": "uint256",
          "name": "",
          "type": "uint256"
        }
      ],
      "stateMutability": "view",
      "type": "function"
    },
    {
      "inputs": [
        {
          "internalType": "uint256",
          "name": "",
          "type": "uint256"
        }
      ],
      "name": "owners",
      "outputs": [
        {
          "internalType": "address",
          "name": "",
          "type": "address"
        }
      ],
      "stateMutability": "view",
      "type": "function"
    },
    {
      "inputs": [
        {
          "internalType": "uint256",
          "name": "",
          "type": "uint256"
        }
      ],
      "name": "transactions",
      "outputs": [
        {
          "internalType": "address",
          "name": "to",
          "type": "address"
        },
        {
          "internalType": "uint256",
          "name": "value",
          "type": "uint256"
        },
        {
          "internalType": "bytes",
          "name": "data",
          "type": "bytes"
        },
        {
          "internalType": "bool",
          "name": "executed",
          "type": "bool"
        },
        {
          "internalType": "uint256",
          "name": "numConfirmations",
          "type": "uint256"
        }
      ],
      "stateMutability": "view",
      "type": "function"
    },
    {
      "stateMutability": "payable",
      "type": "receive"
    },
    {
      "inputs": [],
      "name": "deposit",
      "outputs": [],
      "stateMutability": "payable",
      "type": "function"
    },
    {
      "inputs": [
        {
          "internalType": "address",
          "name": "_to",
          "type": "address"
        },
        {
          "internalType": "uint256",
          "name": "_value",
          "type": "uint256"
        },
        {
          "internalType": "bytes",
          "name": "_data",
          "type": "bytes"
        }
      ],
      "name": "submitTransaction",
      "outputs": [],
      "stateMutability": "nonpayable",
      "type": "function"
    },
    {
      "inputs": [
        {
          "internalType": "uint256",
          "name": "_txIndex",
          "type": "uint256"
        }
      ],
      "name": "confirmTransaction",
      "outputs": [],
      "stateMutability": "nonpayable",
      "type": "function"
    },
    {
      "inputs": [
        {
          "internalType": "uint256",
          "name": "_txIndex",
          "type": "uint256"
        }
      ],
      "name": "executeTransaction",
      "outputs": [],
      "stateMutability": "nonpayable",
      "type": "function"
    },
    {
      "inputs": [
        {
          "internalType": "uint256",
          "name": "_txIndex",
          "type": "uint256"
        }
      ],
      "name": "revokeTransaction",
      "outputs": [],
      "stateMutability": "nonpayable",
      "type": "function"
    }
  ],
  "bytecode": "0x60806040523480156200001157600080fd5b506040516200230c3803806200230c83398181016040528101906200003791906200050e565b60008251116200007e576040517f08c379a00000000000000000000000000000000000000000000000000000000081526004016200007590620005d5565b60405180910390fd5b60008111801562000090575081518111155b620000d2576040517f08c379a0000000000000000000000000000000000000000000000000000000008152600401620000c9906200066d565b60405180910390fd5b60005b8251811015620002d5576000838281518110620000f757620000f66200068f565b5b60200260200101519050600073ffffffffffffffffffffffffffffffffffffffff168173ffffffffffffffffffffffffffffffffffffffff160362000173576040517f08c379a00000000000000000000000000000000000000000000000000000000081526004016200016a906200070e565b60405180910390fd5b600360008273ffffffffffffffffffffffffffffffffffffffff1673ffffffffffffffffffffffffffffffffffffffff16815260200190815260200160002060009054906101000a900460ff161562000203576040517f08c379a0000000000000000000000000000000000000000000000000000000008152600401620001fa9062000780565b60405180910390fd5b6001600360008373ffffffffffffffffffffffffffffffffffffffff1673ffffffffffffffffffffffffffffffffffffffff16815260200190815260200160002060006101000a81548160ff0219169083151502179055506001819080600181540180825580915050600190039060005260206000200160009091909190916101000a81548173ffffffffffffffffffffffffffffffffffffffff021916908373ffffffffffffffffffffffffffffffffffffffff160217905550508080620002cc90620007d1565b915050620000d5565b508060008190555050506200081e565b6000604051905090565b600080fd5b600080fd5b600080fd5b6000601f19601f8301169050919050565b7f4e487b7100000000000000000000000000000000000000000000000000000000600052604160045260246000fd5b6200034982620002fe565b810181811067ffffffffffffffff821117156200036b576200036a6200030f565b5b80604052505050565b600062000380620002e5565b90506200038e82826200033e565b919050565b600067ffffffffffffffff821115620003b157620003b06200030f565b5b602082029050602081019050919050565b600080fd5b600073ffffffffffffffffffffffffffffffffffffffff82169050919050565b6000620003f482620003c7565b9050919050565b6200040681620003e7565b81146200041257600080fd5b50565b6000815190506200042681620003fb565b92915050565b6000620004436200043d8462000393565b62000374565b90508083825260208201905060208402830185811115620004695762000468620003c2565b5b835b8181101562000496578062000481888262000415565b8452602084019350506020810190506200046b565b5050509392505050565b600082601f830112620004b857620004b7620002f9565b5b8151620004ca8482602086016200042c565b91505092915050565b6000819050919050565b620004e881620004d3565b8114620004f457600080fd5b50565b6000815190506200050881620004dd565b92915050565b60008060408385031215620005285762000527620002ef565b5b600083015167ffffffffffffffff811115620005495762000548620002f4565b5b6200055785828601620004a0565b92505060206200056a85828601620004f7565b9150509250929050565b600082825260208201905092915050565b7f6f776e6572732072657175697265640000000000000000000000000000000000600082015250565b6000620005bd600f8362000574565b9150620005ca8262000585565b602082019050919050565b60006020820190508181036000830152620005f081620005ae565b9050919050565b7f696e76616c6964206e756d626572206f6620726571756972656420636f6e666960008201527f726d6174696f6e73000000000000000000000000000000000000000000000000602082015250565b60006200065560288362000574565b91506200066282620005f7565b604082019050919050565b60006020820190508181036000830152620006888162000646565b9050919050565b7f4e487b7100000000000000000000000000000000000000000000000000000000600052603260045260246000fd5b7f696e76616c6964206f776e657200000000000000000000000000000000000000600082015250565b6000620006f6600d8362000574565b91506200070382620006be565b602082019050919050565b600060208201905081810360008301526200072981620006e7565b9050919050565b7f6f776e6572206e6f7420756e6971756500000000000000000000000000000000600082015250565b60006200076860108362000574565b9150620007758262000730565b602082019050919050565b600060208201905081810360008301526200079b8162000759565b9050919050565b7f4e487b7100000000000000000000000000000000000000000000000000000000600052601160045260246000fd5b6000620007de82620004d3565b91507fffffffffffffffffffffffffffffffffffffffffffffffffffffffffffffffff8203620008135762000812620007a2565b5b600182019050919050565b611ade806200082e6000396000f3fe60806040526004361061008a5760003560e01c8063c642747411610059578063c6427474146101b6578063d0549b85146101df578063d0e30db01461020a578063d60ce33114610214578063ee22610b14610251576100e1565b8063025e7c27146100e6578063735631ad146101235780639ace38c21461014c578063c01a8c841461018d576100e1565b366100e1573373ffffffffffffffffffffffffffffffffffffffff167f90890809c654f11d6e72a28fa60149770a0d11ec6c92319d6ceb2bb0a4ea1a1534476040516100d79291906110fe565b60405180910390a2005b600080fd5b3480156100f257600080fd5b5061010d60048036038101906101089190611167565b61027a565b60405161011a91906111d5565b60405180910390f35b34801561012f57600080fd5b5061014a60048036038101906101459190611167565b6102b9565b005b34801561015857600080fd5b50610173600480360381019061016e9190611167565b61062f565b6040516101849594939291906112a4565b60405180910390f35b34801561019957600080fd5b506101b460048036038101906101af9190611167565b61072a565b005b3480156101c257600080fd5b506101dd60048036038101906101d8919061145f565b6109ac565b005b3480156101eb57600080fd5b506101f4610bb6565b60405161020191906114ce565b60405180910390f35b610212610bbc565b005b34801561022057600080fd5b5061023b600480360381019061023691906114e9565b610c0e565b6040516102489190611542565b60405180910390f35b34801561025d57600080fd5b5061027860048036038101906102739190611167565b610c3f565b005b6001818154811061028a57600080fd5b906000526020600020016000915054906101000a900473ffffffffffffffffffffffffffffffffffffffff1681565b600360003373ffffffffffffffffffffffffffffffffffffffff1673ffffffffffffffffffffffffffffffffffffffff16815260200190815260200160002060009054906101000a900460ff16610345576040517f08c379a000000000000000000000000000000000000000000000000000000000815260040161033c906115ba565b60405180910390fd5b80600480549050811061038d576040517f08c379a000000000000000000000000000000000000000000000000000000000815260040161038490611626565b60405180910390fd5b81600481815481106103a2576103a1611646565b5b906000526020600020906005020160030160009054906101000a900460ff1615610401576040517f08c379a00000000000000000000000000000000000000000000000000000000081526004016103f8906116c1565b60405180910390fd5b60006004848154811061041757610416611646565b5b906000526020600020906005020190506104313385610f37565b610470576040517f08c379a00000000000000000000000000000000000000000000000000000000081526004016104679061172d565b60405180910390fd5b60005b600260003373ffffffffffffffffffffffffffffffffffffffff1673ffffffffffffffffffffffffffffffffffffffff168152602001908152602001600020805490508110156105c8576001856104ca919061177c565b6040516020016104da91906117f3565b60405160208183030381529060405280519060200120600260003373ffffffffffffffffffffffffffffffffffffffff1673ffffffffffffffffffffffffffffffffffffffff168152602001908152602001600020828154811061054157610540611646565b5b9060005260206000200154036105b5576000801b600260003373ffffffffffffffffffffffffffffffffffffffff1673ffffffffffffffffffffffffffffffffffffffff16815260200190815260200160002082815481106105a6576105a5611646565b5b90600052602060002001819055505b80806105c09061180e565b915050610473565b5060018160040160008282546105de9190611856565b92505081905550833373ffffffffffffffffffffffffffffffffffffffff167f1ad870073a851011d852bccd8634c29c7c0ac2265ba96d2bab01285001a465a860405160405180910390a350505050565b6004818154811061063f57600080fd5b90600052602060002090600502016000915090508060000160009054906101000a900473ffffffffffffffffffffffffffffffffffffffff169080600101549080600201805461068e906118b9565b80601f01602080910402602001604051908101604052809291908181526020018280546106ba906118b9565b80156107075780601f106106dc57610100808354040283529160200191610707565b820191906000526020600020905b8154815290600101906020018083116106ea57829003601f168201915b5050505050908060030160009054906101000a900460ff16908060040154905085565b600360003373ffffffffffffffffffffffffffffffffffffffff1673ffffffffffffffffffffffffffffffffffffffff16815260200190815260200160002060009054906101000a900460ff166107b6576040517f08c379a00000000000000000000000000000000000000000000000000000000081526004016107ad906115ba565b60405180910390fd5b8060048054905081106107fe576040517f08c379a00000000000000000000000000000000000000000000000000000000081526004016107f590611626565b60405180910390fd5b816004818154811061081357610812611646565b5b906000526020600020906005020160030160009054906101000a900460ff1615610872576040517f08c379a0000000000000000000000000000000000000000000000000000000008152600401610869906116c1565b60405180910390fd5b8261087d3382610f37565b1561088757600080fd5b60006004858154811061089d5761089c611646565b5b90600052602060002090600502019050600260003373ffffffffffffffffffffffffffffffffffffffff1673ffffffffffffffffffffffffffffffffffffffff1681526020019081526020016000206001866108f9919061177c565b60405160200161090991906117f3565b604051602081830303815290604052805190602001209080600181540180825580915050600190039060005260206000200160009091909190915055600181600401600082825461095a919061177c565b92505081905550843373ffffffffffffffffffffffffffffffffffffffff167f5cbe105e36805f7820e291f799d5794ff948af2a5f664e580382defb6339004160405160405180910390a35050505050565b600360003373ffffffffffffffffffffffffffffffffffffffff1673ffffffffffffffffffffffffffffffffffffffff16815260200190815260200160002060009054906101000a900460ff16610a38576040517f08c379a0000000000000000000000000000000000000000000000000000000008152600401610a2f906115ba565b60405180910390fd5b6000600480549050905060046040518060a001604052808673ffffffffffffffffffffffffffffffffffffffff1681526020018581526020018481526020016000151581526020016000815250908060018154018082558091505060019003906000526020600020906005020160009091909190915060008201518160000160006101000a81548173ffffffffffffffffffffffffffffffffffffffff021916908373ffffffffffffffffffffffffffffffffffffffff160217905550602082015181600101556040820151816002019080519060200190610b1b929190611042565b5060608201518160030160006101000a81548160ff0219169083151502179055506080820151816004015550508373ffffffffffffffffffffffffffffffffffffffff16813373ffffffffffffffffffffffffffffffffffffffff167fd5a05bf70715ad82a09a756320284a1b54c9ff74cd0f8cce6219e79b563fe59d8686604051610ba89291906118ea565b60405180910390a450505050565b60005481565b3373ffffffffffffffffffffffffffffffffffffffff167f90890809c654f11d6e72a28fa60149770a0d11ec6c92319d6ceb2bb0a4ea1a153447604051610c049291906110fe565b60405180910390a2565b60026020528160005260406000208181548110610c2a57600080fd5b90600052602060002001600091509150505481565b600360003373ffffffffffffffffffffffffffffffffffffffff1673ffffffffffffffffffffffffffffffffffffffff16815260200190815260200160002060009054906101000a900460ff16610ccb576040517f08c379a0000000000000000000000000000000000000000000000000000000008152600401610cc2906115ba565b60405180910390fd5b806004805490508110610d13576040517f08c379a0000000000000000000000000000000000000000000000000000000008152600401610d0a90611626565b60405180910390fd5b8160048181548110610d2857610d27611646565b5b906000526020600020906005020160030160009054906101000a900460ff1615610d87576040517f08c379a0000000000000000000000000000000000000000000000000000000008152600401610d7e906116c1565b60405180910390fd5b600060048481548110610d9d57610d9c611646565b5b9060005260206000209060050201905060005481600401541015610df6576040517f08c379a0000000000000000000000000000000000000000000000000000000008152600401610ded90611966565b60405180910390fd5b60018160030160006101000a81548160ff02191690831515021790555060008160000160009054906101000a900473ffffffffffffffffffffffffffffffffffffffff1673ffffffffffffffffffffffffffffffffffffffff16826001015483600201604051610e669190611a25565b60006040518083038185875af1925050503d8060008114610ea3576040519150601f19603f3d011682016040523d82523d6000602084013e610ea8565b606091505b5050905080610eec576040517f08c379a0000000000000000000000000000000000000000000000000000000008152600401610ee390611a88565b60405180910390fd5b843373ffffffffffffffffffffffffffffffffffffffff167f5445f318f4f5fcfb66592e68e0cc5822aa15664039bd5f0ffde24c5a8142b1ac60405160405180910390a35050505050565b6000806000905060005b600260008673ffffffffffffffffffffffffffffffffffffffff1673ffffffffffffffffffffffffffffffffffffffff1681526020019081526020016000208054905081101561103757600184610f98919061177c565b604051602001610fa891906117f3565b60405160208183030381529060405280519060200120600260008773ffffffffffffffffffffffffffffffffffffffff1673ffffffffffffffffffffffffffffffffffffffff168152602001908152602001600020828154811061100f5761100e611646565b5b90600052602060002001540361102457600191505b808061102f9061180e565b915050610f41565b508091505092915050565b82805461104e906118b9565b90600052602060002090601f01602090048101928261107057600085556110b7565b82601f1061108957805160ff19168380011785556110b7565b828001600101855582156110b7579182015b828111156110b657825182559160200191906001019061109b565b5b5090506110c491906110c8565b5090565b5b808211156110e15760008160009055506001016110c9565b5090565b6000819050919050565b6110f8816110e5565b82525050565b600060408201905061111360008301856110ef565b61112060208301846110ef565b9392505050565b6000604051905090565b600080fd5b600080fd5b611144816110e5565b811461114f57600080fd5b50565b6000813590506111618161113b565b92915050565b60006020828403121561117d5761117c611131565b5b600061118b84828501611152565b91505092915050565b600073ffffffffffffffffffffffffffffffffffffffff82169050919050565b60006111bf82611194565b9050919050565b6111cf816111b4565b82525050565b60006020820190506111ea60008301846111c6565b92915050565b600081519050919050565b600082825260208201905092915050565b60005b8381101561122a57808201518184015260208101905061120f565b83811115611239576000848401525b50505050565b6000601f19601f8301169050919050565b600061125b826111f0565b61126581856111fb565b935061127581856020860161120c565b61127e8161123f565b840191505092915050565b60008115159050919050565b61129e81611289565b82525050565b600060a0820190506112b960008301886111c6565b6112c660208301876110ef565b81810360408301526112d88186611250565b90506112e76060830185611295565b6112f460808301846110ef565b9695505050505050565b611307816111b4565b811461131257600080fd5b50565b600081359050611324816112fe565b92915050565b600080fd5b600080fd5b7f4e487b7100000000000000000000000000000000000000000000000000000000600052604160045260246000fd5b61136c8261123f565b810181811067ffffffffffffffff8211171561138b5761138a611334565b5b80604052505050565b600061139e611127565b90506113aa8282611363565b919050565b600067ffffffffffffffff8211156113ca576113c9611334565b5b6113d38261123f565b9050602081019050919050565b82818337600083830152505050565b60006114026113fd846113af565b611394565b90508281526020810184848401111561141e5761141d61132f565b5b6114298482856113e0565b509392505050565b600082601f8301126114465761144561132a565b5b81356114568482602086016113ef565b91505092915050565b60008060006060848603121561147857611477611131565b5b600061148686828701611315565b935050602061149786828701611152565b925050604084013567ffffffffffffffff8111156114b8576114b7611136565b5b6114c486828701611431565b9150509250925092565b60006020820190506114e360008301846110ef565b92915050565b60008060408385031215611500576114ff611131565b5b600061150e85828601611315565b925050602061151f85828601611152565b9150509250929050565b6000819050919050565b61153c81611529565b82525050565b60006020820190506115576000830184611533565b92915050565b600082825260208201905092915050565b7f6e6f74206f776e65720000000000000000000000000000000000000000000000600082015250565b60006115a460098361155d565b91506115af8261156e565b602082019050919050565b600060208201905081810360008301526115d381611597565b9050919050565b7f747820646f6573206e6f74206578697374000000000000000000000000000000600082015250565b600061161060118361155d565b915061161b826115da565b602082019050919050565b6000602082019050818103600083015261163f81611603565b9050919050565b7f4e487b7100000000000000000000000000000000000000000000000000000000600052603260045260246000fd5b7f747820616c726561647920657865637574656400000000000000000000000000600082015250565b60006116ab60138361155d565b91506116b682611675565b602082019050919050565b600060208201905081810360008301526116da8161169e565b9050919050565b7f7478206e6f7420636f6e6669726d656400000000000000000000000000000000600082015250565b600061171760108361155d565b9150611722826116e1565b602082019050919050565b600060208201905081810360008301526117468161170a565b9050919050565b7f4e487b7100000000000000000000000000000000000000000000000000000000600052601160045260246000fd5b6000611787826110e5565b9150611792836110e5565b9250827fffffffffffffffffffffffffffffffffffffffffffffffffffffffffffffffff038211156117c7576117c661174d565b5b828201905092915050565b6000819050919050565b6117ed6117e8826110e5565b6117d2565b82525050565b60006117ff82846117dc565b60208201915081905092915050565b6000611819826110e5565b91507fffffffffffffffffffffffffffffffffffffffffffffffffffffffffffffffff820361184b5761184a61174d565b5b600182019050919050565b6000611861826110e5565b915061186c836110e5565b92508282101561187f5761187e61174d565b5b828203905092915050565b7f4e487b7100000000000000000000000000000000000000000000000000000000600052602260045260246000fd5b600060028204905060018216806118d157607f821691505b6020821081036118e4576118e361188a565b5b50919050565b60006040820190506118ff60008301856110ef565b81810360208301526119118184611250565b90509392505050565b7f63616e6e6f742065786563757465207478000000000000000000000000000000600082015250565b600061195060118361155d565b915061195b8261191a565b602082019050919050565b6000602082019050818103600083015261197f81611943565b9050919050565b600081905092915050565b60008190508160005260206000209050919050565b600081546119b3816118b9565b6119bd8186611986565b945060018216600081146119d857600181146119e957611a1c565b60ff19831686528186019350611a1c565b6119f285611991565b60005b83811015611a14578154818901526001820191506020810190506119f5565b838801955050505b50505092915050565b6000611a3182846119a6565b915081905092915050565b7f7478206661696c65640000000000000000000000000000000000000000000000600082015250565b6000611a7260098361155d565b9150611a7d82611a3c565b602082019050919050565b60006020820190508181036000830152611aa181611a65565b905091905056fea264697066735822122000d0f61dc3a61cc085ee0665a648e32f29a852cf3296acb7f2f83643755a37a864736f6c634300080d0033",
  "immutableReferences": {},
  "source": "// SPDX-License-Identifier: MIT\r\npragma solidity ^0.8.13;\r\n\r\n/* Multi Sig Wallet\r\nTopics\r\n\r\nevent \r\narray\r\nmapping\r\nstruct\r\nconstructor\r\nerror\r\nfor loop\r\nfallback and payable\r\nfunction modifier\r\ncall\r\nview function\r\n\r\nDemo\r\n1. Send Ether to an account\r\n2. Call another contract\r\n\r\n[\"0x5B38Da6a701c568545dCfcB03FcB875f56beddC4\", \"0xAb8483F64d9C6d1EcF9b849Ae677dD3315835cb2\", \"0x4B20993Bc481177ec7E8f571ceCaE8A9e22C02db\"]\r\n0xdD870fA1b7C4700F2BD7f44238821C26f7392148, 1000000000000000000, 0x\r\n*/\r\n\r\ncontract MultiSigWallet {\r\n    event Deposit(address indexed sender, uint amount, uint balance);\r\n    event SubmitTransaction(address indexed owner, uint indexed txIndex, address indexed to, uint value, bytes data);\r\n    event ConfirmTransaction(address indexed owner, uint indexed txIndex);\r\n    event RevokeTransaction(address indexed owner, uint indexed txIndex);\r\n    event ExecuteTransaction(address indexed owner, uint indexed txIndex);\r\n\r\n    uint public numConfirmationsRequired;\r\n    address[] public owners;\r\n    mapping(address => bytes32[]) public confirmedTransactions;\r\n    mapping (address => bool) isOwner;\r\n    \r\n    \r\n\r\n    struct Transaction {\r\n        address to;\r\n        uint value;\r\n        bytes data;\r\n        bool executed;\r\n        uint numConfirmations;\r\n    }\r\n\r\n\r\n    Transaction[] public transactions;\r\n\r\n    constructor(address[] memory _owners, uint _numConfirmationsRequired)  {\r\n        require(_owners.length > 0, \"owners required\");\r\n        require(_numConfirmationsRequired > 0 && _numConfirmationsRequired <= _owners.length, \"invalid number of required confirmations\");\r\n\r\n        for (uint i = 0; i < _owners.length; i++) {\r\n            address owner = _owners[i];\r\n\r\n            require(owner != address(0), \"invalid owner\");\r\n            require(!isOwner[owner], \"owner not unique\");\r\n\r\n            isOwner[owner] = true;\r\n            owners.push(owner);\r\n        }\r\n\r\n        numConfirmationsRequired = _numConfirmationsRequired;\r\n    }\r\n\r\n    receive() payable external {\r\n        emit Deposit(msg.sender, msg.value, address(this).balance);\r\n    }\r\n\r\n    //NOTE: helper function to easily deposit in Remix\r\n    function deposit() payable external {\r\n        emit Deposit(msg.sender, msg.value, address(this).balance);\r\n    }\r\n\r\n    function submitTransaction(address _to, uint _value, bytes memory _data) public onlyOwner {\r\n        uint txIndex = transactions.length;\r\n        \r\n        transactions.push(Transaction({\r\n            to: _to,\r\n            value: _value,\r\n            data: _data,\r\n            executed: false,\r\n            numConfirmations: 0\r\n        }));\r\n\r\n        emit SubmitTransaction(msg.sender, txIndex, _to, _value, _data);\r\n    }\r\n\r\n    function confirmTransaction(uint _txIndex) public \r\n        onlyOwner \r\n        txExists(_txIndex) \r\n        notExecuted(_txIndex) \r\n        notConfirmed(_txIndex) \r\n    {\r\n        Transaction storage transaction = transactions[_txIndex];\r\n\r\n        confirmedTransactions[msg.sender].push(keccak256(abi.encodePacked(_txIndex + 1)));\r\n        transaction.numConfirmations += 1;\r\n\r\n        emit ConfirmTransaction(msg.sender, _txIndex);\r\n    }\r\n\r\n    function executeTransaction(uint _txIndex) \r\n        public \r\n        onlyOwner\r\n        txExists(_txIndex)\r\n        notExecuted(_txIndex)\r\n    {\r\n        Transaction storage transaction = transactions[_txIndex];\r\n\r\n        require(\r\n            transaction.numConfirmations >= numConfirmationsRequired,\r\n            \"cannot execute tx\"\r\n        );\r\n\r\n        transaction.executed = true;\r\n\r\n        (bool success, ) = transaction.to.call{value: transaction.value}(transaction.data);\r\n        require(success, \"tx failed\");\r\n\r\n        emit ExecuteTransaction(msg.sender, _txIndex);\r\n    }\r\n\r\n    function isConfirmed(address _addr, uint _txIndex) internal view returns (bool) {\r\n        bool inside = false;\r\n        \r\n        for (uint i = 0; i < confirmedTransactions[_addr].length; i++) {\r\n            if (confirmedTransactions[_addr][i] == keccak256(abi.encodePacked(_txIndex + 1))) {\r\n                inside = true;\r\n            }\r\n        }\r\n\r\n        return inside;\r\n    }\r\n\r\n    function revokeTransaction(uint _txIndex) \r\n        public\r\n        onlyOwner\r\n        txExists(_txIndex)\r\n        notExecuted(_txIndex)\r\n    {\r\n        Transaction storage transaction = transactions[_txIndex];\r\n\r\n        require(isConfirmed(msg.sender, _txIndex), \"tx not confirmed\");\r\n\r\n        for (uint i = 0; i < confirmedTransactions[msg.sender].length; i++) {\r\n            if (confirmedTransactions[msg.sender][i] == keccak256(abi.encodePacked(_txIndex + 1))) {\r\n                confirmedTransactions[msg.sender][i] = 0;\r\n            }\r\n        }\r\n        transaction.numConfirmations -= 1;\r\n\r\n        emit RevokeTransaction(msg.sender, _txIndex);\r\n    }\r\n\r\n        modifier txExists(uint _txIndex) {\r\n        require(_txIndex < transactions.length, \"tx does not exist\");\r\n        _;\r\n    }\r\n\r\n    modifier notExecuted(uint _txIndex) {\r\n        require(!transactions[_txIndex].executed, \"tx already executed\");\r\n        _;\r\n    }\r\n\r\n    modifier notConfirmed(uint _txIndex) {\r\n        require(!isConfirmed(msg.sender, _txIndex));\r\n       _;\r\n    }\r\n\r\n    modifier onlyOwner() {\r\n        require(isOwner[msg.sender], \"not owner\");\r\n        _;\r\n    }\r\n}\r\n\r\ncontract TestContrac {\r\n    uint public i;\r\n\r\n    function callMe(uint j) public {\r\n        i += j;\r\n    }\r\n\r\n    function getData() public pure returns (bytes memory)  {\r\n        return abi.encodeWithSignature(\"callMe(uint256)\", 123);\r\n    }\r\n}",
  "sourcePath": "C:\\Users\\melih\\Desktop\\Ethereum Dev\\SolidityLessons\\MultiSigWallet\\contracts\\MultiSigWallet.sol",
  "compiler": {
    "name": "solc",
    "version": "0.8.13+commit.abaa5c0e.Emscripten.clang"
  },
  "schemaVersion": "3.4.7",
  "updatedAt": "2022-05-22T20:12:19.574Z",
  "devdoc": {
    "kind": "dev",
    "methods": {},
    "version": 1
  },
  "userdoc": {
    "kind": "user",
    "methods": {},
    "version": 1
  }
}