{
  "contractName": "MultiSigWallet",
  "abi": [
    {
      "inputs": [
        {
          "internalType": "address[]",
          "name": "_owners",
          "type": "address[]"
        },
        {
          "internalType": "uint256",
          "name": "_numConfirmationsRequired",
          "type": "uint256"
        }
      ],
      "stateMutability": "nonpayable",
      "type": "constructor"
    },
    {
      "anonymous": false,
      "inputs": [
        {
          "indexed": true,
          "internalType": "address",
          "name": "owner",
          "type": "address"
        },
        {
          "indexed": true,
          "internalType": "uint256",
          "name": "txIndex",
          "type": "uint256"
        }
      ],
      "name": "ConfirmTransaction",
      "type": "event"
    },
    {
      "anonymous": false,
      "inputs": [
        {
          "indexed": true,
          "internalType": "address",
          "name": "sender",
          "type": "address"
        },
        {
          "indexed": false,
          "internalType": "uint256",
          "name": "amount",
          "type": "uint256"
        },
        {
          "indexed": false,
          "internalType": "uint256",
          "name": "balance",
          "type": "uint256"
        }
      ],
      "name": "Deposit",
      "type": "event"
    },
    {
      "anonymous": false,
      "inputs": [
        {
          "indexed": true,
          "internalType": "address",
          "name": "owner",
          "type": "address"
        },
        {
          "indexed": true,
          "internalType": "uint256",
          "name": "txIndex",
          "type": "uint256"
        }
      ],
      "name": "ExecuteTransaction",
      "type": "event"
    },
    {
      "anonymous": false,
      "inputs": [
        {
          "indexed": true,
          "internalType": "address",
          "name": "owner",
          "type": "address"
        },
        {
          "indexed": true,
          "internalType": "uint256",
          "name": "txIndex",
          "type": "uint256"
        }
      ],
      "name": "RevokeTransaction",
      "type": "event"
    },
    {
      "anonymous": false,
      "inputs": [
        {
          "indexed": true,
          "internalType": "address",
          "name": "owner",
          "type": "address"
        },
        {
          "indexed": true,
          "internalType": "uint256",
          "name": "txIndex",
          "type": "uint256"
        },
        {
          "indexed": true,
          "internalType": "address",
          "name": "to",
          "type": "address"
        },
        {
          "indexed": false,
          "internalType": "uint256",
          "name": "value",
          "type": "uint256"
        },
        {
          "indexed": false,
          "internalType": "bytes",
          "name": "data",
          "type": "bytes"
        }
      ],
      "name": "SubmitTransaction",
      "type": "event"
    },
    {
      "inputs": [
        {
          "internalType": "address",
          "name": "",
          "type": "address"
        },
        {
          "internalType": "uint256",
          "name": "",
          "type": "uint256"
        }
      ],
      "name": "confirmedTransactions",
      "outputs": [
        {
          "internalType": "bytes32",
          "name": "",
          "type": "bytes32"
        }
      ],
      "stateMutability": "view",
      "type": "function"
    },
    {
      "inputs": [],
      "name": "numConfirmationsRequired",
      "outputs": [
        {
          "internalType": "uint256",
          "name": "",
          "type": "uint256"
        }
      ],
      "stateMutability": "view",
      "type": "function"
    },
    {
      "inputs": [
        {
          "internalType": "uint256",
          "name": "",
          "type": "uint256"
        }
      ],
      "name": "owners",
      "outputs": [
        {
          "internalType": "address",
          "name": "",
          "type": "address"
        }
      ],
      "stateMutability": "view",
      "type": "function"
    },
    {
      "inputs": [
        {
          "internalType": "uint256",
          "name": "",
          "type": "uint256"
        }
      ],
      "name": "transactions",
      "outputs": [
        {
          "internalType": "address",
          "name": "to",
          "type": "address"
        },
        {
          "internalType": "uint256",
          "name": "value",
          "type": "uint256"
        },
        {
          "internalType": "bytes",
          "name": "data",
          "type": "bytes"
        },
        {
          "internalType": "bool",
          "name": "executed",
          "type": "bool"
        },
        {
          "internalType": "uint256",
          "name": "numConfirmations",
          "type": "uint256"
        }
      ],
      "stateMutability": "view",
      "type": "function"
    },
    {
      "stateMutability": "payable",
      "type": "receive"
    },
    {
      "inputs": [],
      "name": "deposit",
      "outputs": [],
      "stateMutability": "payable",
      "type": "function"
    },
    {
      "inputs": [
        {
          "internalType": "address",
          "name": "_to",
          "type": "address"
        },
        {
          "internalType": "uint256",
          "name": "_value",
          "type": "uint256"
        },
        {
          "internalType": "bytes",
          "name": "_data",
          "type": "bytes"
        }
      ],
      "name": "submitTransaction",
      "outputs": [],
      "stateMutability": "nonpayable",
      "type": "function"
    },
    {
      "inputs": [
        {
          "internalType": "uint256",
          "name": "_txIndex",
          "type": "uint256"
        }
      ],
      "name": "confirmTransaction",
      "outputs": [],
      "stateMutability": "nonpayable",
      "type": "function"
    },
    {
      "inputs": [
        {
          "internalType": "uint256",
          "name": "_txIndex",
          "type": "uint256"
        }
      ],
      "name": "executeTransaction",
      "outputs": [],
      "stateMutability": "nonpayable",
      "type": "function"
    },
    {
      "inputs": [
        {
          "internalType": "uint256",
          "name": "_txIndex",
          "type": "uint256"
        }
      ],
      "name": "getTransaction",
      "outputs": [
        {
          "internalType": "address",
          "name": "to",
          "type": "address"
        },
        {
          "internalType": "uint256",
          "name": "value",
          "type": "uint256"
        },
        {
          "internalType": "bytes",
          "name": "data",
          "type": "bytes"
        },
        {
          "internalType": "bool",
          "name": "executed",
          "type": "bool"
        },
        {
          "internalType": "uint256",
          "name": "numConfirmations",
          "type": "uint256"
        }
      ],
      "stateMutability": "view",
      "type": "function"
    },
    {
      "inputs": [
        {
          "internalType": "uint256",
          "name": "_txIndex",
          "type": "uint256"
        }
      ],
      "name": "revokeTransaction",
      "outputs": [],
      "stateMutability": "nonpayable",
      "type": "function"
    }
  ],
  "bytecode": "0x60806040523480156200001157600080fd5b506040516200246b3803806200246b83398181016040528101906200003791906200050e565b60008251116200007e576040517f08c379a00000000000000000000000000000000000000000000000000000000081526004016200007590620005d5565b60405180910390fd5b60008111801562000090575081518111155b620000d2576040517f08c379a0000000000000000000000000000000000000000000000000000000008152600401620000c9906200066d565b60405180910390fd5b60005b8251811015620002d5576000838281518110620000f757620000f66200068f565b5b60200260200101519050600073ffffffffffffffffffffffffffffffffffffffff168173ffffffffffffffffffffffffffffffffffffffff160362000173576040517f08c379a00000000000000000000000000000000000000000000000000000000081526004016200016a906200070e565b60405180910390fd5b600360008273ffffffffffffffffffffffffffffffffffffffff1673ffffffffffffffffffffffffffffffffffffffff16815260200190815260200160002060009054906101000a900460ff161562000203576040517f08c379a0000000000000000000000000000000000000000000000000000000008152600401620001fa9062000780565b60405180910390fd5b6001600360008373ffffffffffffffffffffffffffffffffffffffff1673ffffffffffffffffffffffffffffffffffffffff16815260200190815260200160002060006101000a81548160ff0219169083151502179055506001819080600181540180825580915050600190039060005260206000200160009091909190916101000a81548173ffffffffffffffffffffffffffffffffffffffff021916908373ffffffffffffffffffffffffffffffffffffffff160217905550508080620002cc90620007d1565b915050620000d5565b508060008190555050506200081e565b6000604051905090565b600080fd5b600080fd5b600080fd5b6000601f19601f8301169050919050565b7f4e487b7100000000000000000000000000000000000000000000000000000000600052604160045260246000fd5b6200034982620002fe565b810181811067ffffffffffffffff821117156200036b576200036a6200030f565b5b80604052505050565b600062000380620002e5565b90506200038e82826200033e565b919050565b600067ffffffffffffffff821115620003b157620003b06200030f565b5b602082029050602081019050919050565b600080fd5b600073ffffffffffffffffffffffffffffffffffffffff82169050919050565b6000620003f482620003c7565b9050919050565b6200040681620003e7565b81146200041257600080fd5b50565b6000815190506200042681620003fb565b92915050565b6000620004436200043d8462000393565b62000374565b90508083825260208201905060208402830185811115620004695762000468620003c2565b5b835b8181101562000496578062000481888262000415565b8452602084019350506020810190506200046b565b5050509392505050565b600082601f830112620004b857620004b7620002f9565b5b8151620004ca8482602086016200042c565b91505092915050565b6000819050919050565b620004e881620004d3565b8114620004f457600080fd5b50565b6000815190506200050881620004dd565b92915050565b60008060408385031215620005285762000527620002ef565b5b600083015167ffffffffffffffff811115620005495762000548620002f4565b5b6200055785828601620004a0565b92505060206200056a85828601620004f7565b9150509250929050565b600082825260208201905092915050565b7f6f776e6572732072657175697265640000000000000000000000000000000000600082015250565b6000620005bd600f8362000574565b9150620005ca8262000585565b602082019050919050565b60006020820190508181036000830152620005f081620005ae565b9050919050565b7f696e76616c6964206e756d626572206f6620726571756972656420636f6e666960008201527f726d6174696f6e73000000000000000000000000000000000000000000000000602082015250565b60006200065560288362000574565b91506200066282620005f7565b604082019050919050565b60006020820190508181036000830152620006888162000646565b9050919050565b7f4e487b7100000000000000000000000000000000000000000000000000000000600052603260045260246000fd5b7f696e76616c6964206f776e657200000000000000000000000000000000000000600082015250565b6000620006f6600d8362000574565b91506200070382620006be565b602082019050919050565b600060208201905081810360008301526200072981620006e7565b9050919050565b7f6f776e6572206e6f7420756e6971756500000000000000000000000000000000600082015250565b60006200076860108362000574565b9150620007758262000730565b602082019050919050565b600060208201905081810360008301526200079b8162000759565b9050919050565b7f4e487b7100000000000000000000000000000000000000000000000000000000600052601160045260246000fd5b6000620007de82620004d3565b91507fffffffffffffffffffffffffffffffffffffffffffffffffffffffffffffffff8203620008135762000812620007a2565b5b600182019050919050565b611c3d806200082e6000396000f3fe6080604052600436106100955760003560e01c8063c642747411610059578063c642747414610202578063d0549b851461022b578063d0e30db014610256578063d60ce33114610260578063ee22610b1461029d576100ec565b8063025e7c27146100f157806333ea3dc81461012e578063735631ad1461016f5780639ace38c214610198578063c01a8c84146101d9576100ec565b366100ec573373ffffffffffffffffffffffffffffffffffffffff167f90890809c654f11d6e72a28fa60149770a0d11ec6c92319d6ceb2bb0a4ea1a1534476040516100e292919061125d565b60405180910390a2005b600080fd5b3480156100fd57600080fd5b50610118600480360381019061011391906112c6565b6102c6565b6040516101259190611334565b60405180910390f35b34801561013a57600080fd5b50610155600480360381019061015091906112c6565b610305565b604051610166959493929190611403565b60405180910390f35b34801561017b57600080fd5b50610196600480360381019061019191906112c6565b610418565b005b3480156101a457600080fd5b506101bf60048036038101906101ba91906112c6565b61078e565b6040516101d0959493929190611403565b60405180910390f35b3480156101e557600080fd5b5061020060048036038101906101fb91906112c6565b610889565b005b34801561020e57600080fd5b50610229600480360381019061022491906115be565b610b0b565b005b34801561023757600080fd5b50610240610d15565b60405161024d919061162d565b60405180910390f35b61025e610d1b565b005b34801561026c57600080fd5b5061028760048036038101906102829190611648565b610d6d565b60405161029491906116a1565b60405180910390f35b3480156102a957600080fd5b506102c460048036038101906102bf91906112c6565b610d9e565b005b600181815481106102d657600080fd5b906000526020600020016000915054906101000a900473ffffffffffffffffffffffffffffffffffffffff1681565b6000806060600080600060048781548110610323576103226116bc565b5b906000526020600020906005020190508060000160009054906101000a900473ffffffffffffffffffffffffffffffffffffffff168160010154826002018360030160009054906101000a900460ff1684600401548280546103849061171a565b80601f01602080910402602001604051908101604052809291908181526020018280546103b09061171a565b80156103fd5780601f106103d2576101008083540402835291602001916103fd565b820191906000526020600020905b8154815290600101906020018083116103e057829003601f168201915b50505050509250955095509550955095505091939590929450565b600360003373ffffffffffffffffffffffffffffffffffffffff1673ffffffffffffffffffffffffffffffffffffffff16815260200190815260200160002060009054906101000a900460ff166104a4576040517f08c379a000000000000000000000000000000000000000000000000000000000815260040161049b906117a8565b60405180910390fd5b8060048054905081106104ec576040517f08c379a00000000000000000000000000000000000000000000000000000000081526004016104e390611814565b60405180910390fd5b8160048181548110610501576105006116bc565b5b906000526020600020906005020160030160009054906101000a900460ff1615610560576040517f08c379a000000000000000000000000000000000000000000000000000000000815260040161055790611880565b60405180910390fd5b600060048481548110610576576105756116bc565b5b906000526020600020906005020190506105903385611096565b6105cf576040517f08c379a00000000000000000000000000000000000000000000000000000000081526004016105c6906118ec565b60405180910390fd5b60005b600260003373ffffffffffffffffffffffffffffffffffffffff1673ffffffffffffffffffffffffffffffffffffffff1681526020019081526020016000208054905081101561072757600185610629919061193b565b60405160200161063991906119b2565b60405160208183030381529060405280519060200120600260003373ffffffffffffffffffffffffffffffffffffffff1673ffffffffffffffffffffffffffffffffffffffff16815260200190815260200160002082815481106106a05761069f6116bc565b5b906000526020600020015403610714576000801b600260003373ffffffffffffffffffffffffffffffffffffffff1673ffffffffffffffffffffffffffffffffffffffff1681526020019081526020016000208281548110610705576107046116bc565b5b90600052602060002001819055505b808061071f906119cd565b9150506105d2565b50600181600401600082825461073d9190611a15565b92505081905550833373ffffffffffffffffffffffffffffffffffffffff167f1ad870073a851011d852bccd8634c29c7c0ac2265ba96d2bab01285001a465a860405160405180910390a350505050565b6004818154811061079e57600080fd5b90600052602060002090600502016000915090508060000160009054906101000a900473ffffffffffffffffffffffffffffffffffffffff16908060010154908060020180546107ed9061171a565b80601f01602080910402602001604051908101604052809291908181526020018280546108199061171a565b80156108665780601f1061083b57610100808354040283529160200191610866565b820191906000526020600020905b81548152906001019060200180831161084957829003601f168201915b5050505050908060030160009054906101000a900460ff16908060040154905085565b600360003373ffffffffffffffffffffffffffffffffffffffff1673ffffffffffffffffffffffffffffffffffffffff16815260200190815260200160002060009054906101000a900460ff16610915576040517f08c379a000000000000000000000000000000000000000000000000000000000815260040161090c906117a8565b60405180910390fd5b80600480549050811061095d576040517f08c379a000000000000000000000000000000000000000000000000000000000815260040161095490611814565b60405180910390fd5b8160048181548110610972576109716116bc565b5b906000526020600020906005020160030160009054906101000a900460ff16156109d1576040517f08c379a00000000000000000000000000000000000000000000000000000000081526004016109c890611880565b60405180910390fd5b826109dc3382611096565b156109e657600080fd5b6000600485815481106109fc576109fb6116bc565b5b90600052602060002090600502019050600260003373ffffffffffffffffffffffffffffffffffffffff1673ffffffffffffffffffffffffffffffffffffffff168152602001908152602001600020600186610a58919061193b565b604051602001610a6891906119b2565b6040516020818303038152906040528051906020012090806001815401808255809150506001900390600052602060002001600090919091909150556001816004016000828254610ab9919061193b565b92505081905550843373ffffffffffffffffffffffffffffffffffffffff167f5cbe105e36805f7820e291f799d5794ff948af2a5f664e580382defb6339004160405160405180910390a35050505050565b600360003373ffffffffffffffffffffffffffffffffffffffff1673ffffffffffffffffffffffffffffffffffffffff16815260200190815260200160002060009054906101000a900460ff16610b97576040517f08c379a0000000000000000000000000000000000000000000000000000000008152600401610b8e906117a8565b60405180910390fd5b6000600480549050905060046040518060a001604052808673ffffffffffffffffffffffffffffffffffffffff1681526020018581526020018481526020016000151581526020016000815250908060018154018082558091505060019003906000526020600020906005020160009091909190915060008201518160000160006101000a81548173ffffffffffffffffffffffffffffffffffffffff021916908373ffffffffffffffffffffffffffffffffffffffff160217905550602082015181600101556040820151816002019080519060200190610c7a9291906111a1565b5060608201518160030160006101000a81548160ff0219169083151502179055506080820151816004015550508373ffffffffffffffffffffffffffffffffffffffff16813373ffffffffffffffffffffffffffffffffffffffff167fd5a05bf70715ad82a09a756320284a1b54c9ff74cd0f8cce6219e79b563fe59d8686604051610d07929190611a49565b60405180910390a450505050565b60005481565b3373ffffffffffffffffffffffffffffffffffffffff167f90890809c654f11d6e72a28fa60149770a0d11ec6c92319d6ceb2bb0a4ea1a153447604051610d6392919061125d565b60405180910390a2565b60026020528160005260406000208181548110610d8957600080fd5b90600052602060002001600091509150505481565b600360003373ffffffffffffffffffffffffffffffffffffffff1673ffffffffffffffffffffffffffffffffffffffff16815260200190815260200160002060009054906101000a900460ff16610e2a576040517f08c379a0000000000000000000000000000000000000000000000000000000008152600401610e21906117a8565b60405180910390fd5b806004805490508110610e72576040517f08c379a0000000000000000000000000000000000000000000000000000000008152600401610e6990611814565b60405180910390fd5b8160048181548110610e8757610e866116bc565b5b906000526020600020906005020160030160009054906101000a900460ff1615610ee6576040517f08c379a0000000000000000000000000000000000000000000000000000000008152600401610edd90611880565b60405180910390fd5b600060048481548110610efc57610efb6116bc565b5b9060005260206000209060050201905060005481600401541015610f55576040517f08c379a0000000000000000000000000000000000000000000000000000000008152600401610f4c90611ac5565b60405180910390fd5b60018160030160006101000a81548160ff02191690831515021790555060008160000160009054906101000a900473ffffffffffffffffffffffffffffffffffffffff1673ffffffffffffffffffffffffffffffffffffffff16826001015483600201604051610fc59190611b84565b60006040518083038185875af1925050503d8060008114611002576040519150601f19603f3d011682016040523d82523d6000602084013e611007565b606091505b505090508061104b576040517f08c379a000000000000000000000000000000000000000000000000000000000815260040161104290611be7565b60405180910390fd5b843373ffffffffffffffffffffffffffffffffffffffff167f5445f318f4f5fcfb66592e68e0cc5822aa15664039bd5f0ffde24c5a8142b1ac60405160405180910390a35050505050565b6000806000905060005b600260008673ffffffffffffffffffffffffffffffffffffffff1673ffffffffffffffffffffffffffffffffffffffff16815260200190815260200160002080549050811015611196576001846110f7919061193b565b60405160200161110791906119b2565b60405160208183030381529060405280519060200120600260008773ffffffffffffffffffffffffffffffffffffffff1673ffffffffffffffffffffffffffffffffffffffff168152602001908152602001600020828154811061116e5761116d6116bc565b5b90600052602060002001540361118357600191505b808061118e906119cd565b9150506110a0565b508091505092915050565b8280546111ad9061171a565b90600052602060002090601f0160209004810192826111cf5760008555611216565b82601f106111e857805160ff1916838001178555611216565b82800160010185558215611216579182015b828111156112155782518255916020019190600101906111fa565b5b5090506112239190611227565b5090565b5b80821115611240576000816000905550600101611228565b5090565b6000819050919050565b61125781611244565b82525050565b6000604082019050611272600083018561124e565b61127f602083018461124e565b9392505050565b6000604051905090565b600080fd5b600080fd5b6112a381611244565b81146112ae57600080fd5b50565b6000813590506112c08161129a565b92915050565b6000602082840312156112dc576112db611290565b5b60006112ea848285016112b1565b91505092915050565b600073ffffffffffffffffffffffffffffffffffffffff82169050919050565b600061131e826112f3565b9050919050565b61132e81611313565b82525050565b60006020820190506113496000830184611325565b92915050565b600081519050919050565b600082825260208201905092915050565b60005b8381101561138957808201518184015260208101905061136e565b83811115611398576000848401525b50505050565b6000601f19601f8301169050919050565b60006113ba8261134f565b6113c4818561135a565b93506113d481856020860161136b565b6113dd8161139e565b840191505092915050565b60008115159050919050565b6113fd816113e8565b82525050565b600060a0820190506114186000830188611325565b611425602083018761124e565b818103604083015261143781866113af565b905061144660608301856113f4565b611453608083018461124e565b9695505050505050565b61146681611313565b811461147157600080fd5b50565b6000813590506114838161145d565b92915050565b600080fd5b600080fd5b7f4e487b7100000000000000000000000000000000000000000000000000000000600052604160045260246000fd5b6114cb8261139e565b810181811067ffffffffffffffff821117156114ea576114e9611493565b5b80604052505050565b60006114fd611286565b905061150982826114c2565b919050565b600067ffffffffffffffff82111561152957611528611493565b5b6115328261139e565b9050602081019050919050565b82818337600083830152505050565b600061156161155c8461150e565b6114f3565b90508281526020810184848401111561157d5761157c61148e565b5b61158884828561153f565b509392505050565b600082601f8301126115a5576115a4611489565b5b81356115b584826020860161154e565b91505092915050565b6000806000606084860312156115d7576115d6611290565b5b60006115e586828701611474565b93505060206115f6868287016112b1565b925050604084013567ffffffffffffffff81111561161757611616611295565b5b61162386828701611590565b9150509250925092565b6000602082019050611642600083018461124e565b92915050565b6000806040838503121561165f5761165e611290565b5b600061166d85828601611474565b925050602061167e858286016112b1565b9150509250929050565b6000819050919050565b61169b81611688565b82525050565b60006020820190506116b66000830184611692565b92915050565b7f4e487b7100000000000000000000000000000000000000000000000000000000600052603260045260246000fd5b7f4e487b7100000000000000000000000000000000000000000000000000000000600052602260045260246000fd5b6000600282049050600182168061173257607f821691505b602082108103611745576117446116eb565b5b50919050565b600082825260208201905092915050565b7f6e6f74206f776e65720000000000000000000000000000000000000000000000600082015250565b600061179260098361174b565b915061179d8261175c565b602082019050919050565b600060208201905081810360008301526117c181611785565b9050919050565b7f747820646f6573206e6f74206578697374000000000000000000000000000000600082015250565b60006117fe60118361174b565b9150611809826117c8565b602082019050919050565b6000602082019050818103600083015261182d816117f1565b9050919050565b7f747820616c726561647920657865637574656400000000000000000000000000600082015250565b600061186a60138361174b565b915061187582611834565b602082019050919050565b600060208201905081810360008301526118998161185d565b9050919050565b7f7478206e6f7420636f6e6669726d656400000000000000000000000000000000600082015250565b60006118d660108361174b565b91506118e1826118a0565b602082019050919050565b60006020820190508181036000830152611905816118c9565b9050919050565b7f4e487b7100000000000000000000000000000000000000000000000000000000600052601160045260246000fd5b600061194682611244565b915061195183611244565b9250827fffffffffffffffffffffffffffffffffffffffffffffffffffffffffffffffff038211156119865761198561190c565b5b828201905092915050565b6000819050919050565b6119ac6119a782611244565b611991565b82525050565b60006119be828461199b565b60208201915081905092915050565b60006119d882611244565b91507fffffffffffffffffffffffffffffffffffffffffffffffffffffffffffffffff8203611a0a57611a0961190c565b5b600182019050919050565b6000611a2082611244565b9150611a2b83611244565b925082821015611a3e57611a3d61190c565b5b828203905092915050565b6000604082019050611a5e600083018561124e565b8181036020830152611a7081846113af565b90509392505050565b7f63616e6e6f742065786563757465207478000000000000000000000000000000600082015250565b6000611aaf60118361174b565b9150611aba82611a79565b602082019050919050565b60006020820190508181036000830152611ade81611aa2565b9050919050565b600081905092915050565b60008190508160005260206000209050919050565b60008154611b128161171a565b611b1c8186611ae5565b94506001821660008114611b375760018114611b4857611b7b565b60ff19831686528186019350611b7b565b611b5185611af0565b60005b83811015611b7357815481890152600182019150602081019050611b54565b838801955050505b50505092915050565b6000611b908284611b05565b915081905092915050565b7f7478206661696c65640000000000000000000000000000000000000000000000600082015250565b6000611bd160098361174b565b9150611bdc82611b9b565b602082019050919050565b60006020820190508181036000830152611c0081611bc4565b905091905056fea264697066735822122069a79057839a7d816ea19afc5d606eb4f8478ef8bf0bbec31516287c2e4ea8b564736f6c634300080d0033",
  "immutableReferences": {},
  "source": "// SPDX-License-Identifier: MIT\r\npragma solidity ^0.8.13;\r\n\r\n/* Multi Sig Wallet\r\nTopics\r\n\r\nevent \r\narray\r\nmapping\r\nstruct\r\nconstructor\r\nerror\r\nfor loop\r\nfallback and payable\r\nfunction modifier\r\ncall\r\nview function\r\n\r\nDemo\r\n1. Send Ether to an account\r\n2. Call another contract\r\n\r\n[\"0x5B38Da6a701c568545dCfcB03FcB875f56beddC4\", \"0xAb8483F64d9C6d1EcF9b849Ae677dD3315835cb2\", \"0x4B20993Bc481177ec7E8f571ceCaE8A9e22C02db\"]\r\n0xdD870fA1b7C4700F2BD7f44238821C26f7392148, 1000000000000000000, 0x\r\n*/\r\n\r\ncontract MultiSigWallet {\r\n    event Deposit(address indexed sender, uint amount, uint balance);\r\n    event SubmitTransaction(address indexed owner, uint indexed txIndex, address indexed to, uint value, bytes data);\r\n    event ConfirmTransaction(address indexed owner, uint indexed txIndex);\r\n    event RevokeTransaction(address indexed owner, uint indexed txIndex);\r\n    event ExecuteTransaction(address indexed owner, uint indexed txIndex);\r\n\r\n    uint public numConfirmationsRequired;\r\n    address[] public owners;\r\n    mapping(address => bytes32[]) public confirmedTransactions;\r\n    mapping (address => bool) isOwner;\r\n    \r\n    \r\n\r\n    struct Transaction {\r\n        address to;\r\n        uint value;\r\n        bytes data;\r\n        bool executed;\r\n        uint numConfirmations;\r\n    }\r\n\r\n\r\n    Transaction[] public transactions;\r\n\r\n    constructor(address[] memory _owners, uint _numConfirmationsRequired)  {\r\n        require(_owners.length > 0, \"owners required\");\r\n        require(_numConfirmationsRequired > 0 && _numConfirmationsRequired <= _owners.length, \"invalid number of required confirmations\");\r\n\r\n        for (uint i = 0; i < _owners.length; i++) {\r\n            address owner = _owners[i];\r\n\r\n            require(owner != address(0), \"invalid owner\");\r\n            require(!isOwner[owner], \"owner not unique\");\r\n\r\n            isOwner[owner] = true;\r\n            owners.push(owner);\r\n        }\r\n\r\n        numConfirmationsRequired = _numConfirmationsRequired;\r\n    }\r\n\r\n    receive() payable external {\r\n        emit Deposit(msg.sender, msg.value, address(this).balance);\r\n    }\r\n\r\n    //NOTE: helper function to easily deposit in Remix\r\n    function deposit() payable external {\r\n        emit Deposit(msg.sender, msg.value, address(this).balance);\r\n    }\r\n\r\n    function submitTransaction(address _to, uint _value, bytes memory _data) public onlyOwner {\r\n        uint txIndex = transactions.length;\r\n        \r\n        transactions.push(Transaction({\r\n            to: _to,\r\n            value: _value,\r\n            data: _data,\r\n            executed: false,\r\n            numConfirmations: 0\r\n        }));\r\n\r\n        emit SubmitTransaction(msg.sender, txIndex, _to, _value, _data);\r\n    }\r\n\r\n    function confirmTransaction(uint _txIndex) public \r\n        onlyOwner \r\n        txExists(_txIndex) \r\n        notExecuted(_txIndex) \r\n        notConfirmed(_txIndex) \r\n    {\r\n        Transaction storage transaction = transactions[_txIndex];\r\n\r\n        confirmedTransactions[msg.sender].push(keccak256(abi.encodePacked(_txIndex + 1)));\r\n        transaction.numConfirmations += 1;\r\n\r\n        emit ConfirmTransaction(msg.sender, _txIndex);\r\n    }\r\n\r\n    function executeTransaction(uint _txIndex) \r\n        public \r\n        onlyOwner\r\n        txExists(_txIndex)\r\n        notExecuted(_txIndex)\r\n    {\r\n        Transaction storage transaction = transactions[_txIndex];\r\n\r\n        require(\r\n            transaction.numConfirmations >= numConfirmationsRequired,\r\n            \"cannot execute tx\"\r\n        );\r\n\r\n        transaction.executed = true;\r\n\r\n        (bool success, ) = transaction.to.call{value: transaction.value}(transaction.data);\r\n        require(success, \"tx failed\");\r\n\r\n        emit ExecuteTransaction(msg.sender, _txIndex);\r\n    }\r\n\r\n    function isConfirmed(address _addr, uint _txIndex) internal view returns (bool) {\r\n        bool inside = false;\r\n        \r\n        for (uint i = 0; i < confirmedTransactions[_addr].length; i++) {\r\n            if (confirmedTransactions[_addr][i] == keccak256(abi.encodePacked(_txIndex + 1))) {\r\n                inside = true;\r\n            }\r\n        }\r\n        return inside;\r\n    }\r\n\r\n    function getTransaction(uint _txIndex) \r\n        public\r\n        view\r\n        returns (address to, uint value, bytes memory data, bool executed, uint numConfirmations)\r\n    {\r\n        Transaction storage transaction = transactions[_txIndex];\r\n\r\n        return (\r\n          transaction.to,\r\n          transaction.value,\r\n          transaction.data,\r\n          transaction.executed,\r\n          transaction.numConfirmations  \r\n        );\r\n    }\r\n\r\n    function revokeTransaction(uint _txIndex) \r\n        public\r\n        onlyOwner\r\n        txExists(_txIndex)\r\n        notExecuted(_txIndex)\r\n    {\r\n        Transaction storage transaction = transactions[_txIndex];\r\n\r\n        require(isConfirmed(msg.sender, _txIndex), \"tx not confirmed\");\r\n\r\n        for (uint i = 0; i < confirmedTransactions[msg.sender].length; i++) {\r\n            if (confirmedTransactions[msg.sender][i] == keccak256(abi.encodePacked(_txIndex + 1))) {\r\n                confirmedTransactions[msg.sender][i] = 0;\r\n            }\r\n        }\r\n        transaction.numConfirmations -= 1;\r\n\r\n        emit RevokeTransaction(msg.sender, _txIndex);\r\n    }\r\n\r\n        modifier txExists(uint _txIndex) {\r\n        require(_txIndex < transactions.length, \"tx does not exist\");\r\n        _;\r\n    }\r\n\r\n    modifier notExecuted(uint _txIndex) {\r\n        require(!transactions[_txIndex].executed, \"tx already executed\");\r\n        _;\r\n    }\r\n\r\n    modifier notConfirmed(uint _txIndex) {\r\n        require(!isConfirmed(msg.sender, _txIndex));\r\n       _;\r\n    }\r\n\r\n    modifier onlyOwner() {\r\n        require(isOwner[msg.sender], \"not owner\");\r\n        _;\r\n    }\r\n}\r\n\r\ncontract TestContrac {\r\n    uint public i;\r\n\r\n    function callMe(uint j) public {\r\n        i += j;\r\n    }\r\n\r\n    function getData() public pure returns (bytes memory)  {\r\n        return abi.encodeWithSignature(\"callMe(uint256)\", 123);\r\n    }\r\n}",
  "sourcePath": "C:\\Users\\melih\\Desktop\\Ethereum Dev\\SolidityLessons\\MultiSigWallet\\contracts\\MultiSigWallet.sol",
  "compiler": {
    "name": "solc",
    "version": "0.8.13+commit.abaa5c0e.Emscripten.clang"
  },
  "schemaVersion": "3.4.7",
  "updatedAt": "2022-06-17T08:46:28.183Z",
  "devdoc": {
    "kind": "dev",
    "methods": {},
    "version": 1
  },
  "userdoc": {
    "kind": "user",
    "methods": {},
    "version": 1
  }
}