{
  "contractName": "TestContrac",
  "abi": [
    {
      "inputs": [],
      "name": "i",
      "outputs": [
        {
          "internalType": "uint256",
          "name": "",
          "type": "uint256"
        }
      ],
      "stateMutability": "view",
      "type": "function"
    },
    {
      "inputs": [
        {
          "internalType": "uint256",
          "name": "j",
          "type": "uint256"
        }
      ],
      "name": "callMe",
      "outputs": [],
      "stateMutability": "nonpayable",
      "type": "function"
    },
    {
      "inputs": [],
      "name": "getData",
      "outputs": [
        {
          "internalType": "bytes",
          "name": "",
          "type": "bytes"
        }
      ],
      "stateMutability": "pure",
      "type": "function"
    }
  ],
  "bytecode": "0x608060405234801561001057600080fd5b506103ca806100206000396000f3fe608060405234801561001057600080fd5b50600436106100415760003560e01c80633bc5de3014610046578063e5aa3d5814610064578063e73620c314610082575b600080fd5b61004e61009e565b60405161005b91906101ee565b60405180910390f35b61006c610134565b6040516100799190610229565b60405180910390f35b61009c60048036038101906100979190610275565b61013a565b005b6060607b6040516024016100b291906102f4565b6040516020818303038152906040527fe73620c3000000000000000000000000000000000000000000000000000000007bffffffffffffffffffffffffffffffffffffffffffffffffffffffff19166020820180517bffffffffffffffffffffffffffffffffffffffffffffffffffffffff8381831617835250505050905090565b60005481565b8060008082825461014b919061033e565b9250508190555050565b600081519050919050565b600082825260208201905092915050565b60005b8381101561018f578082015181840152602081019050610174565b8381111561019e576000848401525b50505050565b6000601f19601f8301169050919050565b60006101c082610155565b6101ca8185610160565b93506101da818560208601610171565b6101e3816101a4565b840191505092915050565b6000602082019050818103600083015261020881846101b5565b905092915050565b6000819050919050565b61022381610210565b82525050565b600060208201905061023e600083018461021a565b92915050565b600080fd5b61025281610210565b811461025d57600080fd5b50565b60008135905061026f81610249565b92915050565b60006020828403121561028b5761028a610244565b5b600061029984828501610260565b91505092915050565b6000819050919050565b600060ff82169050919050565b6000819050919050565b60006102de6102d96102d4846102a2565b6102b9565b6102ac565b9050919050565b6102ee816102c3565b82525050565b600060208201905061030960008301846102e5565b92915050565b7f4e487b7100000000000000000000000000000000000000000000000000000000600052601160045260246000fd5b600061034982610210565b915061035483610210565b9250827fffffffffffffffffffffffffffffffffffffffffffffffffffffffffffffffff038211156103895761038861030f565b5b82820190509291505056fea2646970667358221220a47d1614a071e31fa8551b8fb3a938ee3f13baaa178016d733d27a328f0797d964736f6c634300080d0033",
  "immutableReferences": {},
  "source": "// SPDX-License-Identifier: MIT\r\npragma solidity ^0.8.13;\r\n\r\n/* Multi Sig Wallet\r\nTopics\r\n\r\nevent \r\narray\r\nmapping\r\nstruct\r\nconstructor\r\nerror\r\nfor loop\r\nfallback and payable\r\nfunction modifier\r\ncall\r\nview function\r\n\r\nDemo\r\n1. Send Ether to an account\r\n2. Call another contract\r\n\r\n[\"0x5B38Da6a701c568545dCfcB03FcB875f56beddC4\", \"0xAb8483F64d9C6d1EcF9b849Ae677dD3315835cb2\", \"0x4B20993Bc481177ec7E8f571ceCaE8A9e22C02db\"]\r\n0xdD870fA1b7C4700F2BD7f44238821C26f7392148, 1000000000000000000, 0x\r\n*/\r\n\r\ncontract MultiSigWallet {\r\n    event Deposit(address indexed sender, uint amount, uint balance);\r\n    event SubmitTransaction(address indexed owner, uint indexed txIndex, address indexed to, uint value, bytes data);\r\n    event ConfirmTransaction(address indexed owner, uint indexed txIndex);\r\n    event RevokeTransaction(address indexed owner, uint indexed txIndex);\r\n    event ExecuteTransaction(address indexed owner, uint indexed txIndex);\r\n\r\n    uint public numConfirmationsRequired;\r\n    address[] public owners;\r\n    mapping(address => bytes32[]) public confirmedTransactions;\r\n    mapping (address => bool) isOwner;\r\n    \r\n    \r\n\r\n    struct Transaction {\r\n        address to;\r\n        uint value;\r\n        bytes data;\r\n        bool executed;\r\n        uint numConfirmations;\r\n    }\r\n\r\n\r\n    Transaction[] public transactions;\r\n\r\n    constructor(address[] memory _owners, uint _numConfirmationsRequired)  {\r\n        require(_owners.length > 0, \"owners required\");\r\n        require(_numConfirmationsRequired > 0 && _numConfirmationsRequired <= _owners.length, \"invalid number of required confirmations\");\r\n\r\n        for (uint i = 0; i < _owners.length; i++) {\r\n            address owner = _owners[i];\r\n\r\n            require(owner != address(0), \"invalid owner\");\r\n            require(!isOwner[owner], \"owner not unique\");\r\n\r\n            isOwner[owner] = true;\r\n            owners.push(owner);\r\n        }\r\n\r\n        numConfirmationsRequired = _numConfirmationsRequired;\r\n    }\r\n\r\n    receive() payable external {\r\n        emit Deposit(msg.sender, msg.value, address(this).balance);\r\n    }\r\n\r\n    //NOTE: helper function to easily deposit in Remix\r\n    function deposit() payable external {\r\n        emit Deposit(msg.sender, msg.value, address(this).balance);\r\n    }\r\n\r\n    function submitTransaction(address _to, uint _value, bytes memory _data) public onlyOwner {\r\n        uint txIndex = transactions.length;\r\n        \r\n        transactions.push(Transaction({\r\n            to: _to,\r\n            value: _value,\r\n            data: _data,\r\n            executed: false,\r\n            numConfirmations: 0\r\n        }));\r\n\r\n        emit SubmitTransaction(msg.sender, txIndex, _to, _value, _data);\r\n    }\r\n\r\n    function confirmTransaction(uint _txIndex) public \r\n        onlyOwner \r\n        txExists(_txIndex) \r\n        notExecuted(_txIndex) \r\n        notConfirmed(_txIndex) \r\n    {\r\n        Transaction storage transaction = transactions[_txIndex];\r\n\r\n        confirmedTransactions[msg.sender].push(keccak256(abi.encodePacked(_txIndex + 1)));\r\n        transaction.numConfirmations += 1;\r\n\r\n        emit ConfirmTransaction(msg.sender, _txIndex);\r\n    }\r\n\r\n    function executeTransaction(uint _txIndex) \r\n        public \r\n        onlyOwner\r\n        txExists(_txIndex)\r\n        notExecuted(_txIndex)\r\n    {\r\n        Transaction storage transaction = transactions[_txIndex];\r\n\r\n        require(\r\n            transaction.numConfirmations >= numConfirmationsRequired,\r\n            \"cannot execute tx\"\r\n        );\r\n\r\n        transaction.executed = true;\r\n\r\n        (bool success, ) = transaction.to.call{value: transaction.value}(transaction.data);\r\n        require(success, \"tx failed\");\r\n\r\n        emit ExecuteTransaction(msg.sender, _txIndex);\r\n    }\r\n\r\n    function isConfirmed(address _addr, uint _txIndex) internal view returns (bool) {\r\n        bool inside = false;\r\n        \r\n        for (uint i = 0; i < confirmedTransactions[_addr].length; i++) {\r\n            if (confirmedTransactions[_addr][i] == keccak256(abi.encodePacked(_txIndex + 1))) {\r\n                inside = true;\r\n            }\r\n        }\r\n        return inside;\r\n    }\r\n\r\n    function getTransaction(uint _txIndex) \r\n        public\r\n        view\r\n        returns (address to, uint value, bytes memory data, bool executed, uint numConfirmations)\r\n    {\r\n        Transaction storage transaction = transactions[_txIndex];\r\n\r\n        return (\r\n          transaction.to,\r\n          transaction.value,\r\n          transaction.data,\r\n          transaction.executed,\r\n          transaction.numConfirmations  \r\n        );\r\n    }\r\n\r\n    function revokeTransaction(uint _txIndex) \r\n        public\r\n        onlyOwner\r\n        txExists(_txIndex)\r\n        notExecuted(_txIndex)\r\n    {\r\n        Transaction storage transaction = transactions[_txIndex];\r\n\r\n        require(isConfirmed(msg.sender, _txIndex), \"tx not confirmed\");\r\n\r\n        for (uint i = 0; i < confirmedTransactions[msg.sender].length; i++) {\r\n            if (confirmedTransactions[msg.sender][i] == keccak256(abi.encodePacked(_txIndex + 1))) {\r\n                confirmedTransactions[msg.sender][i] = 0;\r\n            }\r\n        }\r\n        transaction.numConfirmations -= 1;\r\n\r\n        emit RevokeTransaction(msg.sender, _txIndex);\r\n    }\r\n\r\n        modifier txExists(uint _txIndex) {\r\n        require(_txIndex < transactions.length, \"tx does not exist\");\r\n        _;\r\n    }\r\n\r\n    modifier notExecuted(uint _txIndex) {\r\n        require(!transactions[_txIndex].executed, \"tx already executed\");\r\n        _;\r\n    }\r\n\r\n    modifier notConfirmed(uint _txIndex) {\r\n        require(!isConfirmed(msg.sender, _txIndex));\r\n       _;\r\n    }\r\n\r\n    modifier onlyOwner() {\r\n        require(isOwner[msg.sender], \"not owner\");\r\n        _;\r\n    }\r\n}\r\n\r\ncontract TestContrac {\r\n    uint public i;\r\n\r\n    function callMe(uint j) public {\r\n        i += j;\r\n    }\r\n\r\n    function getData() public pure returns (bytes memory)  {\r\n        return abi.encodeWithSignature(\"callMe(uint256)\", 123);\r\n    }\r\n}",
  "sourcePath": "C:\\Users\\melih\\Desktop\\Ethereum Dev\\SolidityLessons\\MultiSigWallet\\contracts\\MultiSigWallet.sol",
  "compiler": {
    "name": "solc",
    "version": "0.8.13+commit.abaa5c0e.Emscripten.clang"
  },
  "schemaVersion": "3.4.7",
  "updatedAt": "2022-06-17T08:46:28.198Z",
  "devdoc": {
    "kind": "dev",
    "methods": {},
    "version": 1
  },
  "userdoc": {
    "kind": "user",
    "methods": {},
    "version": 1
  }
}